S01800004C69746572616C5265636F72646572302E73726563D9
S113000045C0000060C000005EC000005CC000008D
S11300105AC0000058C0000056C0000054C0000080
S113002052C0000050C000004EC000004CC0000090
S11300304AC00000BEC1000046C0000044C0000029
S113004042C0000040C000003EC000003CC00000B0
S11300503AC0000038C0000036C0000034C00000C0
S113006032C0000030C000002EC000002CC00000D0
S11300702AC0000028C0000026C0000024C00000E0
S113008022C0000020C000001EC0000011241FBEBA
S1130090CFEFD0E4DEBFCDBF13E0A0E0B1E0ECE5EC
S11300A0F0E100E00BBF02C007900D92A637B10744
S11300B0D9F723E0A6E7B3E001C01D92A338B20745
S11300C0E1F78CD3C9C79CCF80937C0080917800E2
S11300D0909179009C012E5C314025363105A0F0C9
S11300E026503F4F2A3F310588F0843D910580F02A
S11300F02F5531402A3F310568F08D529340833D9E
S1130100910550F483E0089580E0089584E0089513
S113011082E0089581E0089580E00895EF92FF92CF
S11301200F931F93CF93DF937C018B01FC0101900C
S11301300020E9F731979F01281B390BFB0101903F
S11301400020E9F73197CF01861B970B820F931F8D
S1130150019611D6EC01B70147D7B801CE0139D7C2
S1130160CE01DF91CF911F910F91FF90EF900895F1
S1130170181619069CF440E050E077E063E00BC0E9
S113018000002150310921153105D1F74F5F5F4F30
S11301904817590719F0272F362FF2CF08955E9884
S11301A088B95F9A00005F9882E090E0E1CF0895FB
S11301B081E0F5CF089584E690E0DADF88E3EFDFAD
S11301C086E0EDDF8FE0EBDF81E0E9DF8AE090E0BD
S11301D0CFCF08955E9A88B95F9A00005F9881E056
S11301E090E0C6CF0895813118F48158D8CF08958E
S11301F08155D5CF08950F931F93CF93DF93182F75
S1130200EB01D6DF8881882359F001E0010F812FAB
S1130210EADF8991DFDF8881882311F0102FF5CF81
S1130220DF91CF911F910F910895AF92BF92CF921A
S1130230DF92EF92FF920F931F93CF93DF93EC0122
S11302408B01FC0101900020E9F73197E81BF90BC1
S1130250E131F10528F061E871E081E0CCDF3DC0D7
S1130260DB010D900020E9F71197A61BB70B5197FE
S113027028F060E971E081E0BEDF2FC080E190E00A
S11302807C01EE1AFF0A09F181E190E05C01AE1AEB
S1130290BF0AC50170D56C01A50160E270E092D679
S11302A0F601EE0DFF1D1082B601CE0137DF7C0191
S11302B0B80134DFEC01BC0181E09DDFC701F3D557
S11302C0CE01F1D5C601EFD508C0CE0127DFEC0180
S11302D0BC0181E090DFCE01E6D5DF91CF911F9183
S11302E00F91FF90EF90DF90CF90BF90AF90089563
S11302F00F931F93CF93DF93062F172F883060F44B
S1130300880F880F880F805C4ADFC02FD12F18E038
S1130310899160DF1150E1F780E841DFDF91CF91EF
S11303201F910F910895FF920F931F93CF93DF9323
S1130330F82EEB018B01040F151F6017710778F479
S11303408881811104C00BC08881882341F08F2DDE
S11303504ADF89913FDFF394C017D107A9F7DF91F2
S1130360CF911F910F91FF9008958BE080938100AE
S11303708DE790E0909389008093880082E08093D9
S11303806F00109285001092840080914C0190912E
S11303904D01A0914E01B0914F0180937A03909347
S11303A07B03A0937C03B0937D038FB780688FBFDA
S11303B008951F920F920FB60F9211248F939F935B
S11303C0AF93BF9380917A0390917B03A0917C03B8
S11303D0B0917D030197A109B10980937A039093A9
S11303E07B03A0937C03B0937D03892B8A2B8B2BF7
S11303F099F481E080937E0380914C0190914D01AA
S1130400A0914E01B0914F0180937A0390937B03A6
S1130410A0937C03B0937D03BF91AF919F918F9183
S11304200F900FBE0F901F901895CF92DF92EF920E
S1130430FF926B017C012091760330917703409108
S1130440780350917903E1D2882309F452C020E063
S113045030E0A901C701B601D8D2811106C0E1E993
S1130460F0E080818870808305C0E1E9F0E080815C
S11304708360808328E539E344E75FE3C701B6017D
S1130480C4D288233CF48FEF9FEF9093990080931C
S1130490980023C020E034E244EF56E4C701B601DB
S11304A003D418162CF4109299001092980015C0D9
S11304B020E030E040E053E4C701B601F9D39B01EA
S11304C0AC0160E074E284EF9AE4A3D20AD36150F1
S11304D0710970939900609398001092950010929E
S11304E09400C0927603D0927703E0927803F0925E
S11304F07903FF90EF90DF90CF90089580E480938C
S113050090008BE08093910060E070E0CB018DCF90
S11305100895EAE7F0E08081806E808308958093F7
S11305207C00209178003091790081E040914A016B
S113053050914B012417350708F480E0089560EDCD
S113054072E081E0D5DE67ED72E080E0D1CE0895FF
S1130550282F30E02F5F3F4F213231050CF48F5F9D
S11305600895282F30E021503109121613060CF497
S113057081500895623061F018F4613039F00895C3
S1130580633019F0643029F00895E2DFE1CF089573
S1130590E8DFE7CF0895CF9381E0C1DF8823C9F076
S11305A087E893E10197F1F700C00000E9B1E09515
S11305B0EF70F0E0EA59FC4FC08180E085DD682FE0
S11305C08C2FD8DFE7E8F3E13197F1F700C00000A2
S11305D001C081E2CF9108958F929F92AF92BF9212
S11305E0CF92DF92EF92FF92CF93DF93813209F49F
S11305F068C093E090937C006091780070917900DA
S11306007250E7E8F3E13197F1F700C00000C82F1A
S1130610D0E0FE01EE0FFF1FEE0FFF1FE252FD4F71
S1130620C080D180E280F3801616170624F588274F
S113063077FD8095982F88D220E030E040E05BE39E
S113064037D34B015C01CC0FDD1FCC0FDD1FCE5126
S1130650DD4FA7019601688179818A819B8170D1E0
S11306609B01AC01C501B40123D320E030E040E894
S11306705EE31ED32DC0772344F5882777FD80954C
S1130680982F62D220E030E040E05BE311D34B01CD
S11306905C01CC0FDD1FCC0FDD1FC652DD4F28815E
S11306A039814A815B81C701B6014AD19B01AC0102
S11306B0C501B401FDD220E030E040E85EE3F8D2A9
S11306C007C060E070E0CB0103C060E070E0CB01E4
S11306D0DF91CF91FF90EF90DF90CF90BF90AF90DC
S11306E09F908F900895E82FCB01BA01E13229F44D
S11306F060E070E0CB0199CE0895F0E0EE0FFF1FAB
S1130700EE0FFF1FE252FD4F208131814281538160
S113071018D18BCE08951F93CF93DF93162FE82F14
S1130720F0E0EE0FFF1FEA5FFE4FC081D181FE01B2
S113073001900020E9F79F012A5031092C173D0749
S113074009F536DD41E050E0BE01812FECDD81E0AA
S1130750810F49DD81E03EDDBE016E5F7F4F45E0E4
S113076050E082E0810FDFDD87E0810F3CDD80E037
S113077031DDBE01685F7F4F41E050E088E0810FCA
S1130780D2DD03C0BE01812F36DDDF91CF911F91F1
S1130790089511B88FEF82B987B918B890EC9AB957
S11307A09FE39BB984B915B8B4DE05DDA7DE84E602
S11307B090E0A0E0B0E080934C0190934D01A093B1
S11307C04E01B0934F0180937A0390937B03A093DF
S11307D07C03B0937D03C9DDB2CE0895AF92BF927E
S11307E0CF92DF92EF92FF920F931F93CF93DF93F9
S11307F0CDB7DEB7C054D1090FB6F894DEBF0FBE33
S1130800CDBFC7DF68EC71E088ED91E00EDD049B9D
S113081002C00299FCCF04994CC065EE71E081E0FE
S1130820EADC049BFECF049B37C010E00F2EFBEAEA
S1130830AF2EF02DB0DE082F87E893E10197F1F792
S113084000C00000802FC8DE6B017C011A9D812D41
S113085011248695982F990F890F181307C0E1E08A
S1130860F0E0EC0FFD1FE10FF11D0083BB24B394F6
S1130870B10E61E0802F4FDFB701A601802F33DF77
S113088080917E038823E1F310927E03049B04C0CD
S1130890103410F41B2DCECF40E050E0BA0181E2B9
S11308A022DF40E450E060E070E0CE010196B3D373
S11308B02EC002992CC0029BFECF40E450E060E0C1
S11308C070E0CE01019697D3FE0131967F016E014F
S11308D0F2E4CF0ED11C40E050E0BA01F701808170
S11308E002DF80917E0381110AC040E050E0BA012A
S11308F0F7018081F8DE80917E038823B1F31092A2
S11309007E03FFEFEF1AFF0AEC14FD0421F760EFFA
S113091071E08EEF91E089DC80E090E0C05CDF4F15
S11309200FB6F894DEBF0FBECDBFDF91CF911F91FC
S11309300F91FF90EF90DF90CF90BF90AF9008950C
S11309405058BB27AA270ED075C166D130F06BD1A1
S113095020F031F49F3F11F41EF45BC10EF4E095D6
S1130960E7FB51C1E92F77D180F3BA176207730708
S11309708407950718F071F49EF58FC10EF4E09585
S11309800B2EBA2FA02D0B01B90190010C01CA0145
S1130990A0011124FF27591B99F0593F50F4503EF0
S11309A068F11A16F040A22F232F342F4427585FE2
S11309B0F3CF469537952795A795F0405395C9F7FA
S11309C07EF41F16BA0B620B730B840BBAF09150B2
S11309D0A1F0FF0FBB1F661F771F881FC2F70EC051
S11309E0BA0F621F731F841F48F487957795679524
S11309F0B795F7959E3F08F0B3CF9395880F08F00D
S1130A009927EE0F979587950895D9D008F481E03A
S1130A1008950CD00FC107D140F0FED030F021F47E
S1130A205F3F19F0F0C0511139C1F3C014D198F3EC
S1130A309923C9F35523B1F3951B550BBB27AA275B
S1130A4062177307840738F09F5F5F4F220F331FCD
S1130A50441FAA1FA9F333D00E2E3AF0E0E830D099
S1130A6091505040E695001CCAF729D0FE2F27D09C
S1130A70660F771F881FBB1F261737074807AB076A
S1130A80B0E809F0BB0B802DBF01FF2793585F4FDF
S1130A902AF09E3F510568F0B6C000C15F3FECF3F9
S1130AA0983EDCF3869577956795B795F7959F5FA4
S1130AB0C9F7880F911D9695879597F90895E1E0F8
S1130AC0660F771F881FBB1F621773078407BA0757
S1130AD020F0621B730B840BBA0BEE1F88F7E095B2
S1130AE0089504D06894B111D9C00895BCD088F099
S1130AF09F5790F0B92F9927B751A0F0D1F0660F06
S1130B00771F881F991F1AF0BA95C9F712C0B13020
S1130B1081F0C3D0B1E00895C0C0672F782F882733
S1130B20B85F39F0B93FCCF3869577956795B3955F
S1130B30D9F73EF490958095709561957F4F8F4FCE
S1130B409F4F0895E89409C097FB3EF490958095D3
S1130B50709561957F4F8F4F9F4F9923A9F0F92F7F
S1130B6096E9BB279395F695879577956795B795FD
S1130B70F111F8CFFAF4BB0F11F460FF1BC06F5FE3
S1130B807F4F8F4F9F4F16C0882311F096E911C0F5
S1130B90772321F09EE8872F762F05C0662371F016
S1130BA096E8862F70E060E02AF09A95660F771F2A
S1130BB0881FDAF7880F9695879597F90895990F06
S1130BC00008550FAA0BE0E8FEEF16161706E80713
S1130BD0F907C0F012161306E407F50798F0621B34
S1130BE0730B840B950B39F40A2661F0232B242B09
S1130BF0252B21F408950A2609F4A140A6958FEF28
S1130C00811D811D089597F99F6780E870E060E079
S1130C1008959FEF80EC089500240A941616170691
S1130C2018060906089500240A94121613061406D9
S1130C3005060895092E0394000C11F4882352F03C
S1130C40BB0F40F4BF2B11F460FF04C06F5F7F4FF4
S1130C508F4F9F4F089557FD9058440F551F59F0DB
S1130C605F3F71F04795880F97FB991F61F09F3F95
S1130C7079F087950895121613061406551FF2CFBE
S1130C804695F1DF08C0161617061806991FF1CF0E
S1130C9086957105610508940895E894BB27662735
S1130CA07727CB0197F908958ADF08F48FEF089529
S1130CB00BD0C0CFB1DF28F0B6DF18F0952309F0D0
S1130CC0A2CFA7CF1124EACFC6DFA0F3959FD1F31B
S1130CD0950F50E0551F629FF001729FBB27F00DE6
S1130CE0B11D639FAA27F00DB11DAA1F649F66273B
S1130CF0B00DA11D661F829F2227B00DA11D621F8A
S1130D00739FB00DA11D621F839FA00D611D221F43
S1130D10749F3327A00D611D231F849F600D211D27
S1130D20822F762F6A2F11249F5750408AF0E1F0CA
S1130D3088234AF0EE0FFF1FBB1F661F771F881F13
S1130D4091505040A9F79E3F510570F05CCFA6CF5B
S1130D505F3FECF3983EDCF3869577956795B795FE
S1130D60F795E7959F5FC1F7FE2B880F911D969528
S1130D70879597F90895CF93DF938230910510F406
S1130D8082E090E0E0918103F091820320E030E082
S1130D90A0E0B0E0309739F14081518148175907FC
S1130DA0B8F04817590771F482819381109729F09C
S1130DB013969C938E9312972CC0909382038093E6
S1130DC0810327C02115310531F04217530718F06C
S1130DD0A901DB0101C0EF019A01BD01DF0102801D
S1130DE0F381E02DD7CF21153105F9F0281B390BFC
S1130DF02430310580F48A819B816115710521F0CD
S1130E00FB019383828304C09093820380938103C4
S1130E10FE01329644C0FE01E20FF31F81939193C9
S1130E2022503109398328833AC020917F033091BD
S1130E308003232B41F4209102013091030130936C
S1130E40800320937F03209100013091010121153B
S1130E50310541F42DB73EB740910401509105018D
S1130E60241B350BE0917F03F0918003E217F30715
S1130E70A0F42E1B3F0B2817390778F0AC014E5F06
S1130E805F4F2417350748F04E0F5F1F50938003C0
S1130E9040937F038193919302C0E0E0F0E0CF019F
S1130EA0DF91CF910895CF93DF93009709F487C022
S1130EB0FC01329713821282C0918103D091820384
S1130EC0209781F420813181280F391F80917F037D
S1130ED0909180038217930779F5F0938003E09350
S1130EE07F036DC0DE0120E030E0AE17BF0750F491
S1130EF012964D915C9113979D014115510509F18D
S1130F00DA01F3CFB383A28340815181840F951F0B
S1130F108A179B0771F48D919C911197840F951FEB
S1130F2002969183808312968D919C91139793835B
S1130F3082832115310529F4F0938203E093810320
S1130F403EC0D9011396FC93EE9312974D915D9197
S1130F50A40FB51FEA17FB0779F480819181840FF0
S1130F60951F0296D90111969C938E938281938149
S1130F7013969C938E931297E0E0F0E08A819B8114
S1130F80009719F0FE01EC01F9CFCE0102962881F9
S1130F903981820F931F20917F033091800328179A
S1130FA0390769F4309729F410928203109281036F
S1130FB002C013821282D0938003C0937F03DF9117
S1130FC0CF910895DC0101C06D9341505040E0F78A
S1130FD00895FB01DC010D900020E9F711970190C1
S1130FE00D920020E1F70895FB01DC0101900D92C0
S1130FF00020E1F70895DC01CB01FC01F999FECF53
S113100006C0F2BDE1BDF89A319600B40D9241508C
S11310105040B8F70895DC01A40FB51F415050406B
S113102040F0CB01840F951F2E9105D041505040C4
S1131030D8F70895262FF999FECF92BD81BDF89A6D
S1131040019700B4021639F01FBA20BD0FB6F89408
S10F1050FA9AF99A0FBE0895F894FFCFA5
S113105C0000830320003E0241024B020E024E02AA
S113106C110258021402170262021A026C021D02C7
S113107C760220022302800226028A0229022C0212
S113108C94022F029E023202A80235023802B202E6
S113109C3B02BC02C602C902CC02A0000100000043
S11310AC43656E74657200646F776E5F6C6F004499
S11310BC4F574E5F48490075705F6C6F0055505F19
S11310CC484900696E76616C696420696E70757448
S11310DC006C696E653120746F6F20626967210042
S11310EC6C696E653220746F6F20626967210075BC
S11310FC70206C6F00555020484900646F776E2047
S113110C6C6F00444F574E20484900496E76616C11
S113111C6964496E7075740052696768743A20503A
S113112C6C61796261636B004C6566743A2052653C
S113113C636F7264005265636F7264696E67210039
S113114C616E6F7468657220676F203A2900446F72
S113115C6E652120524553455420666F720043330B
S113116C0044330045330046330047330041330019
S113117C42330043340044340045340046340047C1
S113118C34004134004234004335004435004132CC
S113119C00412332202F204262320042320043238A
S11311AC33202F2044623300442333202F20456204
S11311BC3300462333202F20476233004723332048
S11311CC2F2041623300412333202F20426233000D
S11311DC432334202F2044623400442334202F2012
S11311EC45623400462334202F20476234004723C1
S11311FC34202F2041623400412334202F204262BA
S113120C3400432335202F204462350044233520F9
S113121C2F2045623500453500463500736868005B
S113122C0A0B1E0A0F1A0A0808080E0A0C080000FA
S113123CDC42FE14E94227F1F64221D002434C97DA
S113124C0A43FED4124321901B4362D024432F9DA6
S113125C2E433BFF38437DFF4343E9A64F43000035
S113126C5C43FE14694327F1764321D082436D9786
S113127C8A431FD5924342909B4362D0A4432F9D33
S113128CAE433BFFB8435CFFC3430AA7CF43000004
S113129CDC43FE14E94306F1F64310D002445C9798
S11312AC0A441FD5124442901B4452D024442F9D0F
S11312BC2E4400000000030507080A0C0E0F11133E
S10912CC1416181A1B1D84
S9030000FC
