S01800004C69746572616C5265636F72646572312E73726563D8
S113000045C0000061C000005FC000005DC000008A
S11300105BC0000059C0000057C0000055C000007C
S113002053C0000051C000004FC000004DC000008C
S11300304BC00000AAC1000047C0000045C000003A
S113004043C0000041C000003FC000003DC00000AC
S11300503BC0000039C0000037C0000035C00000BC
S113006033C0000031C000002FC000002DC00000CC
S11300702BC0000029C0000027C0000025C00000DC
S113008023C0000021C000001FC0000011241FBEB7
S1130090CFEFD0E4DEBFCDBF13E0A0E0B1E0E8E6EF
S11300A0F1E100E00BBF02C007900D92A234B1074A
S11300B0D9F723E0A2E4B3E001C01D92A23DB20748
S11300C0E1F7F3D50C94B2089BCF80937C00809128
S11300D07800909179009C012E5C314025363105E1
S11300E0A0F026503F4F2A3F310588F0843D91050A
S11300F080F02F5531402A3F310568F08D529340EE
S1130100833D910550F483E0089580E0089584E0F0
S1130110089582E0089581E0089580E00895181616
S113012019069CF440E050E077E063E00BC0000067
S11301302150310921153105D1F74F5F5F4F481721
S1130140590719F0272F362FF2CF08955E9888B9F2
S11301505F9A00005F9882E090E0E1CF089584E622
S113016090E0DDDF88E3F2DF86E0F0DF8FE0EEDFB2
S113017081E0ECDF8AE090E0D2CF08955E9A88B9FE
S11301805F9A00005F9881E090E0C9CF08958131C3
S113019018F48158DBCF08958155D8CF0895CF93B3
S11301A0DF93D82FC1E0DD2319F08C2FF0DF03C0DB
S11301B080E18C0FECDF80E2E1DFCF5FC13199F7A2
S11301C0DF91CF910895EF92FF920F931F93CF93F6
S11301D0DF93E82EEB01E3DF88818823C9F08E01E9
S11301E00F5F1F4FFF24F39406C0E8010F5F1F4FFA
S11301F09881992369F0E11003C080E18F0D01C05B
S11302008F2DC5DF8881BADFF39481E1F812EDCF39
S1130210DF91CF911F910F91FF90EF900895CF93AD
S1130220DF93C62F811130C012C0B1DF8DECC89F9F
S1130230812D1124869586958695880F982F990F80
S1130240990F890FC81B8C2F805D98DF3AC081E11C
S11302509EDFD9E2CD9FD12D1124D295DF7080E3AA
S11302608D0F8CDF82E193DF9C2F84E6D89F901959
S113027011248DEC989F812D112486958695869561
S1130280805D7CDF83E1D1CF81E081DFD9E2CD9F46
S1130290D12D1124D295DF7080E38D0F6FDF82E0C2
S11302A076DF9C2F84E6D89F901911248DEC989FBB
S11302B0812D1124869586958695805D5FDF83E088
S11302C0B4CFDF91CF9108950F931F93CF93DF9312
S11302D0062F172F883060F4880F880F880F805CF2
S11302E035DFC02FD12F18E0899148DF1150E1F795
S11302F080E82CDFDF91CF911F910F910895FF9239
S11303000F931F93CF93DF93F82EEB018B01040F10
S1130310151F6017710778F48881811104C00BC020
S11303208881882341F08F2D32DF899127DFF39470
S1130330C017D107A9F7DF91CF911F910F91FF90BB
S113034008958BE0809381008DE790E0909389007D
S11303508093880082E080936F0010928500109251
S113036084008091440190914501A0914601B0918F
S1130370470180934B0390934C03A0934D03B09398
S11303804E038FB780688FBF08951F920F920FB6E8
S11303900F9211248F939F93AF93BF9380914B033C
S11303A090914C03A0914D03B0914E030197A10984
S11303B0B10980934B0390934C03A0934D03B093E6
S11303C04E03892B8A2B8B2B99F481E080934F0366
S11303D08091440190914501A0914601B09147015B
S11303E080934B0390934C03A0934D03B0934E031F
S11303F0BF91AF919F918F910F900FBE0F901F905F
S11304001895CF92DF92EF92FF926B017C012091BD
S11304104703309148034091490350914A03B4D4AF
S1130420882309F452C020E030E0A901C701B601D5
S1130430ABD4811106C0E1E9F0E08081887080834B
S113044005C0E1E9F0E080818360808328E539E339
S113045044E75FE3C701B60197D488233CF48FEFE8
S11304609FEF909399008093980023C020E034E29A
S113047044EF56E4C701B601D6D518162CF41092F1
S113048099001092980015C020E030E040E053E459
S1130490C701B601CCD59B01AC0160E074E284EFE6
S11304A09AE476D4DDD46150710970939900609315
S11304B098001092950010929400C0924703D09235
S11304C04803E0924903F0924A03FF90EF90DF90D3
S11304D0CF900895CF93DF93C82F813039F018F06F
S11304E0823091F01CC01092430334C08091CD033C
S11304F0813081F51092430340E450E06CE070E0F9
S11305008CE893E0FED524C080914303803400F14D
S11305101092CC0360E070E0CB0173DF1BC082302B
S1130520D1F4D0914303ED2FF0E0E457FC4FE08188
S1130530F0E0EE0FFF1FEE0FFF1FE655FD4F608149
S11305407181828193815DDFDF5FD093430303C0B8
S1130550C2E0E7CFC1E08C2FDF91CF91089580E412
S1130560809390008BE08093910060E070E0CB0179
S113057048CF0895EAE7F0E08081806E8083089593
S11305806CE972E081E0A0DE63EA72E080E09CCE78
S11305900895282F30E02F5F3F4F213231050CF4AE
S11305A08F5F0895282F30E0215031091216130669
S11305B00CF481500895623061F018F4613039F020
S11305C00895633019F0643029F00895E2DFE1CF33
S11305D00895E8DFE7CF0895882349F0E9B1E0956D
S11305E0EF70F0E0EE5CFC4F8081E5CF089581E28E
S11305F008958F929F92AF92BF92CF92DF92EF9223
S1130600FF92CF93DF93813209F45BC07250C82FFD
S1130610D0E0FE01EE0FFF1FEE0FFF1FE655FD4F6A
S1130620C080D180E280F3801616170624F588274F
S113063077FD8095982F47D420E030E040E05BE3DD
S1130640F6D44B015C01CC0FDD1FCC0FDD1FC2556E
S1130650DD4FA7019601688179818A819B812FD31F
S11306609B01AC01C501B401E2D420E030E040E8D4
S11306705EE3DDD42DC0772344F5882777FD80958C
S1130680982F21D420E030E040E05BE3D0D44B014C
S11306905C01CC0FDD1FCC0FDD1FCA55DD4F288157
S11306A039814A815B81C701B60109D39B01AC0141
S11306B0C501B401BCD420E030E040E85EE3B7D427
S11306C007C060E070E0CB0103C060E070E0CB01E4
S11306D0DF91CF91FF90EF90DF90CF90BF90AF90DC
S11306E09F908F9008951F93CF93DF93162FE82F39
S11306F0F0E0EE0FFF1FE050FF4FC081D181FE01FB
S113070001900020E9F79F012A5031092C173D0779
S113071011F581E044DD41E050E0BE01812FEFDDC1
S113072081E0810F34DD81E029DDBE016E5F7F4F02
S113073045E050E082E0810FE2DD87E0810F27DDB4
S113074080E01CDDBE01685F7F4F41E050E088E03F
S1130750810FD5DD03C0BE0181E035DDDF91CF918E
S11307601F9108951F93CF93DF93C82F813051F0C9
S113077030F0823091F0833009F440C016C01092FA
S113078044033CC08091CD038230C1F510924403F0
S113079067E971E080E017DD2FC080914403803465
S11307A058F110924403C3E01BC0823019F0833027
S11307B0B9F025C06091CF038091D1030DDF182FCC
S11307C061E091DFD09144036D2F80E028DDED2FAF
S11307D0F0E0E457FC4F1083DF5FD09344030FC075
S11307E040E450E06CE070E08CE893E09AD410921E
S11307F044031092CC0303C0C2E0DCCFC1E08C2FD1
S1130800DF91CF911F910895823069F0833029F0F0
S1130810813031F480ED91E0089584EA91E0089507
S11308208EEA91E008958DE991E00895813019F000
S1130830833029F002C083E0089581E0089582E0C6
S11308400895882331F080B182958F7080958170EE
S1130850089580B186958695809581700895CF938B
S1130860C82F823009F43FC028F4882361F0813016
S1130870C9F06BC0843009F453C008F44DC085300E
S113088009F454C062C01092CD031092460381E073
S1130890809345031092CC03B7DFBC0181E093DC65
S11308A0C1E06DC08091D003811105C081E0C9DF32
S11308B0882309F464C081E0C4DF81110FC08091F2
S11308C0D003843011F0823049F4109246038091B1
S11308D04503ACDF80934503C2E051C081E0B1DF42
S11308E081114BC04CC081E0ACDF811146C08091C6
S11308F0D003811108C08091450386DFBC0181E0EB
S113090062DCC1E03CC0843011F08230C1F58091DA
S113091046038233F8F433C010924603C2E02FC07A
S113092081E08FDF811129C0C5E029C08091CC030B
S1130930811125C081E08093450366DFBC0181E01D
S113094042DC1092CC03C1E01AC0C33021F0C430A1
S1130950B1F40BC0C3E08091450368DF8093450385
S113096053DFBC0181E02FDC0AC0809145038093F2
S1130970CD0381E08093CC0302C0C4E0F6CF8C2F7A
S1130980CF910895CF93C82F813091F058F08230E1
S1130990E9F0833039F0823061F08330C1F0813086
S11309A0D1F401C0C1E083E090DB8093CF0313C096
S11309B0C2E080E08ADB8093D00310927C00209117
S11309C07800309179002093CE0305C0C3E080E025
S11309D038DF8093D1038C2FCF910895CF93DF9389
S11309E0C82F813041F018F08230C9F01FC081E275
S11309F08093420341C08091CD03813009F03CC013
S1130A0061E081E270DE6AEC71E080E0DCDB60E0F2
S1130A1070E0CB01F6DC81E2809342032BC081E0DD
S1130A2010DF882339F11092CC0326C0823029F5D7
S1130A306091CF038091D103CFDDD82F6091CE0395
S1130A4070E0D7DDED2FF0E0EE0FFF1FEE0FFF1F7C
S1130A50E655FD4F208131814281538131D1D1DC72
S1130A6080914203D81719F061E08D2F3CDED093BA
S1130A70420303C0C2E0DCCFC1E08C2FDF91CF91F1
S1130A800895109251031092500388EC90E0A0E076
S1130A90B0E08093520390935303A0935403B09314
S1130AA055038093560390935703A0935803B09330
S1130AB059038FE294E090935B0380935A0310925E
S1130AC05D0310925C0384E190E0A0E0B0E08093C9
S1130AD05E0390935F03A0936003B09361038093DC
S1130AE0620390936303A0936403B093650382EC61
S1130AF094E09093670380936603109269031092C5
S1130B0068038AE090E0A0E0B0E080936A039093E9
S1130B106B03A0936C03B0936D0380936E03909367
S1130B206F03A0937003B09371032EEE34E03093FF
S1130B3073032093720310927503109274038093CD
S1130B40760390937703A0937803B093790380930B
S1130B507A0390937B03A0937C03B0937D0322EBF1
S1130B6033E030937F0320937E031092810310922D
S1130B7080038093820390938303A0938403B093B0
S1130B8085038093860390938703A0938803B0938F
S1130B9089038AE692E090938B0380938A030895F5
S1130BA0CF93DF93CDB7DEB7C054D1090FB6F89415
S1130BB0DEBF0FBECDBF11B88FEF82B987B918B8A9
S1130BC090EC9AB99FE39BB984B915B8D3DCC7DA22
S1130BD0C6DC8AE090E0A0E0B0E08093440190930A
S1130BE04501A0934601B093470180934B03909332
S1130BF04C03A0934D03B0934E03A3DBC1DC40E44C
S1130C0050E061E270E0CE01019674D240E450E01D
S1130C106CE070E0CE01019684D2C05CDF4F0FB669
S1130C20F894DEBF0FBECDBFDF91CF910895EF9250
S1130C30FF920F931F93CF93DF93C0E5D3E00F2E62
S1130C40FCE8EF2EF3E0FF2EF02D8E014E815F8144
S1130C50688579858A819B81AC81BD814817590754
S1130C606A077B0758F0EA85FB8588819981099595
S1130C70998388831E821F8218861986F8018681CB
S1130C809781A085B1850A96A11DB11D868397839E
S1130C90A087B1872C96CE15DF05B9F6DF91CF91E9
S1130CA01F910F91FF90EF9008957ADFEADEBFDF86
S1130CB080914F038823E1F310924F03F8CF5058EB
S1130CC0BB27AA270ED075C166D130F06BD120F0B6
S1130CD031F49F3F11F41EF45BC10EF4E095E7FB81
S1130CE051C1E92F77D180F3BA17620773078407DC
S1130CF0950718F071F49EF58FC10EF4E0950B2E54
S1130D00BA2FA02D0B01B90190010C01CA01A00159
S1130D101124FF27591B99F0593F50F4503E68F1B4
S1130D201A16F040A22F232F342F4427585FF3CFF5
S1130D30469537952795A795F0405395C9F77EF4C6
S1130D401F16BA0B620B730B840BBAF09150A1F00F
S1130D50FF0FBB1F661F771F881FC2F70EC0BA0F95
S1130D60621F731F841F48F4879577956795B7951D
S1130D70F7959E3F08F0B3CF9395880F08F0992715
S1130D80EE0F979587950895D9D008F481E00895DA
S1130D900CD00FC107D140F0FED030F021F45F3FFA
S1130DA019F0F0C0511139C1F3C014D198F399234B
S1130DB0C9F35523B1F3951B550BBB27AA2762171B
S1130DC07307840738F09F5F5F4F220F331F441F60
S1130DD0AA1FA9F333D00E2E3AF0E0E830D0915098
S1130DE05040E695001CCAF729D0FE2F27D0660F85
S1130DF0771F881FBB1F261737074807AB07B0E8C4
S1130E0009F0BB0B802DBF01FF2793585F4F2AF0D9
S1130E109E3F510568F0B6C000C15F3FECF3983EB9
S1130E20DCF3869577956795B795F7959F5FC9F736
S1130E30880F911D9695879597F90895E1E0660FBF
S1130E40771F881FBB1F621773078407BA0720F038
S1130E50621B730B840BBA0BEE1F88F7E0950895A1
S1130E6004D06894B111D9C00895BCD088F09F57BC
S1130E7090F0B92F9927B751A0F0D1F0660F771FE2
S1130E80881F991F1AF0BA95C9F712C0B13081F0C2
S1130E90C3D0B1E00895C0C0672F782F8827B85F0A
S1130EA039F0B93FCCF3869577956795B395D9F723
S1130EB03EF490958095709561957F4F8F4F9F4F2D
S1130EC00895E89409C097FB3EF490958095709539
S1130ED061957F4F8F4F9F4F9923A9F0F92F96E982
S1130EE0BB279395F695879577956795B795F111F7
S1130EF0F8CFFAF4BB0F11F460FF1BC06F5F7F4F94
S1130F008F4F9F4F16C0882311F096E911C07723A5
S1130F1021F09EE8872F762F05C0662371F096E8AE
S1130F20862F70E060E02AF09A95660F771F881F7D
S1130F30DAF7880F9695879597F90895990F000821
S1130F40550FAA0BE0E8FEEF16161706E807F90797
S1130F50C0F012161306E407F50798F0621B730B32
S1130F60840B950B39F40A2661F0232B242B252BB3
S1130F7021F408950A2609F4A140A6958FEF811D56
S1130F80811D089597F99F6780E870E060E00895F7
S1130F909FEF80EC089500240A941616170618068D
S1130FA00906089500240A94121613061406050669
S1130FB00895092E0394000C11F4882352F0BB0FFA
S1130FC040F4BF2B11F460FF04C06F5F7F4F8F4F5D
S1130FD09F4F089557FD9058440F551F59F05F3F98
S1130FE071F04795880F97FB991F61F09F3F79F047
S1130FF087950895121613061406551FF2CF4695C9
S1131000F1DF08C0161617061806991FF1CF86954A
S11310107105610508940895E894BB27662777272E
S1131020CB0197F908958ADF08F48FEF08950BD068
S1131030C0CFB1DF28F0B6DF18F0952309F0A2CFB6
S1131040A7CF1124EACFC6DFA0F3959FD1F3950F64
S113105050E0551F629FF001729FBB27F00DB11D38
S1131060639FAA27F00DB11DAA1F649F6627B00DC8
S1131070A11D661F829F2227B00DA11D621F739FB1
S1131080B00DA11D621F839FA00D611D221F749FBF
S11310903327A00D611D231F849F600D211D822F06
S11310A0762F6A2F11249F5750408AF0E1F088234D
S11310B04AF0EE0FFF1FBB1F661F771F881F91505A
S11310C05040A9F79E3F510570F05CCFA6CF5F3F1B
S11310D0ECF3983EDCF3869577956795B795F7958D
S11310E0E7959F5FC1F7FE2B880F911D9695879515
S11310F097F90895DC0101C06D9341505040E0F729
S11311000895DC01CB01FC01F999FECF06C0F2BDC4
S1131110E1BDF89A319600B40D9241505040B8F7B1
S11311200895DC01A40FB51F4150504040F0CB019D
S1131130840F951F2E9105D041505040D8F7089543
S1131140262FF999FECF92BD81BDF89A019700B47C
S1131150021639F01FBA20BD0FB6F894FA9AF99A1C
S10B11600FBE0895F894FFCFBF
S11311680A020D021702DA011A02DD012402E00163
S1131178E3012E02E6013802E9014202EC01EF0123
S11311884C02F2015602F501F8016002FB016A0201
S1131198FE017402010204027E020702880292021E
S11311A8950298020100000043656E74657200643C
S11311B86F776E5F6C6F00444F574E5F48490075F8
S11311C8705F6C6F0055505F484900696E76616CBA
S11311D8696420696E707574006C696E6531207479
S11311E86F6F2062696721006C696E653220746FC5
S11311F86F2062696721004D6F64653A2052656308
S11312086F726400506C6179204261636B0067659A
S1131218744D6F646546726F6D456E756D2829202F
S113122862726F6B656E2E2E2E004D6F64653A20C8
S11312384672656520506C6179004333004433007D
S113124845330046330047330041330042330043FB
S113125834004434004534004634004734004134F3
S11312680042340043350044350041320041233202
S1131278202F2042623200423200432333202F20A1
S113128844623300442333202F204562330046232D
S113129833202F2047623300472333202F20416215
S11312A83300412333202F20426233004323342068
S11312B82F2044623400442334202F204562340014
S11312C8462334202F2047623400472334202F201C
S11312D841623400412334202F20426234004323E6
S11312E835202F2044623500442335202F204562C1
S11312F83500453500463500736868000A0B1E0A38
S11313080F1A0A0808080E0A0C080000DC42FE142A
S1131318E94227F1F64221D002434C970A43FED40E
S1131328124321901B4362D024432F9D2E433BFF3D
S113133838437DFF4343E9A64F4300005C43FE1452
S1131348694327F1764321D082436D978A431FD599
S1131358924342909B4362D0A4432F9DAE433BFFEC
S1131368B8435CFFC3430AA7CF430000DC43FE1421
S1131378E94306F1F64310D002445C970A441FD5AA
S1131388124442901B4452D024442F9D2E44000002
S11313980000030507080A0C0E0F11131416181A77
S10513A81B1D07
S9030000FC
